{
  "contractName": "Etherfund",
  "abi": [
    {
      "inputs": [
        {
          "internalType": "uint256",
          "name": "",
          "type": "uint256"
        }
      ],
      "name": "campaignMoreDetails",
      "outputs": [
        {
          "internalType": "uint256",
          "name": "campaignId",
          "type": "uint256"
        },
        {
          "internalType": "bool",
          "name": "isRequestedToVote",
          "type": "bool"
        },
        {
          "internalType": "bool",
          "name": "isGoalAchieved",
          "type": "bool"
        }
      ],
      "stateMutability": "view",
      "type": "function",
      "constant": true
    },
    {
      "inputs": [
        {
          "internalType": "uint256",
          "name": "",
          "type": "uint256"
        }
      ],
      "name": "campaigns",
      "outputs": [
        {
          "internalType": "uint256",
          "name": "id",
          "type": "uint256"
        },
        {
          "internalType": "uint256",
          "name": "createdAt",
          "type": "uint256"
        },
        {
          "internalType": "address payable",
          "name": "fundRaiser",
          "type": "address"
        },
        {
          "internalType": "string",
          "name": "title",
          "type": "string"
        },
        {
          "internalType": "string",
          "name": "desc",
          "type": "string"
        },
        {
          "internalType": "string",
          "name": "imageURL",
          "type": "string"
        },
        {
          "internalType": "string",
          "name": "category",
          "type": "string"
        },
        {
          "internalType": "uint256",
          "name": "amountRequired",
          "type": "uint256"
        },
        {
          "internalType": "uint256",
          "name": "collectedAmount",
          "type": "uint256"
        },
        {
          "internalType": "uint256",
          "name": "deadline",
          "type": "uint256"
        },
        {
          "internalType": "uint256",
          "name": "noOfVoters",
          "type": "uint256"
        },
        {
          "internalType": "bool",
          "name": "isCompleted",
          "type": "bool"
        }
      ],
      "stateMutability": "view",
      "type": "function",
      "constant": true
    },
    {
      "inputs": [
        {
          "internalType": "uint256",
          "name": "",
          "type": "uint256"
        },
        {
          "internalType": "uint256",
          "name": "",
          "type": "uint256"
        }
      ],
      "name": "contributors",
      "outputs": [
        {
          "internalType": "address",
          "name": "contributor",
          "type": "address"
        },
        {
          "internalType": "uint256",
          "name": "amountContributed",
          "type": "uint256"
        }
      ],
      "stateMutability": "view",
      "type": "function",
      "constant": true
    },
    {
      "inputs": [
        {
          "internalType": "address",
          "name": "",
          "type": "address"
        },
        {
          "internalType": "uint256",
          "name": "",
          "type": "uint256"
        }
      ],
      "name": "requests",
      "outputs": [
        {
          "internalType": "uint256",
          "name": "campaignId",
          "type": "uint256"
        },
        {
          "internalType": "address",
          "name": "fundRaiser",
          "type": "address"
        },
        {
          "internalType": "uint256",
          "name": "amount",
          "type": "uint256"
        },
        {
          "internalType": "uint256",
          "name": "deadline",
          "type": "uint256"
        },
        {
          "internalType": "bool",
          "name": "isVoted",
          "type": "bool"
        }
      ],
      "stateMutability": "view",
      "type": "function",
      "constant": true
    },
    {
      "inputs": [
        {
          "internalType": "string",
          "name": "_title",
          "type": "string"
        },
        {
          "internalType": "string",
          "name": "_desc",
          "type": "string"
        },
        {
          "internalType": "string",
          "name": "_category",
          "type": "string"
        },
        {
          "internalType": "string",
          "name": "_imageURL",
          "type": "string"
        },
        {
          "internalType": "uint256",
          "name": "_deadline",
          "type": "uint256"
        },
        {
          "internalType": "uint256",
          "name": "_amountRequired",
          "type": "uint256"
        }
      ],
      "name": "createCampaign",
      "outputs": [],
      "stateMutability": "nonpayable",
      "type": "function"
    },
    {
      "inputs": [
        {
          "internalType": "uint256",
          "name": "campaignId",
          "type": "uint256"
        }
      ],
      "name": "contribute",
      "outputs": [],
      "stateMutability": "payable",
      "type": "function",
      "payable": true
    },
    {
      "inputs": [
        {
          "internalType": "uint256",
          "name": "_campaignId",
          "type": "uint256"
        }
      ],
      "name": "requestVote",
      "outputs": [],
      "stateMutability": "nonpayable",
      "type": "function"
    },
    {
      "inputs": [
        {
          "internalType": "uint256",
          "name": "campaignId",
          "type": "uint256"
        }
      ],
      "name": "voteForCampaign",
      "outputs": [],
      "stateMutability": "nonpayable",
      "type": "function"
    },
    {
      "inputs": [
        {
          "internalType": "uint256",
          "name": "campaignId",
          "type": "uint256"
        }
      ],
      "name": "withdrawEther",
      "outputs": [],
      "stateMutability": "nonpayable",
      "type": "function"
    },
    {
      "inputs": [],
      "name": "getIncompleteCampaigns",
      "outputs": [
        {
          "components": [
            {
              "internalType": "uint256",
              "name": "id",
              "type": "uint256"
            },
            {
              "internalType": "uint256",
              "name": "createdAt",
              "type": "uint256"
            },
            {
              "internalType": "address payable",
              "name": "fundRaiser",
              "type": "address"
            },
            {
              "internalType": "string",
              "name": "title",
              "type": "string"
            },
            {
              "internalType": "string",
              "name": "desc",
              "type": "string"
            },
            {
              "internalType": "string",
              "name": "imageURL",
              "type": "string"
            },
            {
              "internalType": "string",
              "name": "category",
              "type": "string"
            },
            {
              "internalType": "uint256",
              "name": "amountRequired",
              "type": "uint256"
            },
            {
              "internalType": "uint256",
              "name": "collectedAmount",
              "type": "uint256"
            },
            {
              "internalType": "uint256",
              "name": "deadline",
              "type": "uint256"
            },
            {
              "internalType": "uint256",
              "name": "noOfVoters",
              "type": "uint256"
            },
            {
              "internalType": "bool",
              "name": "isCompleted",
              "type": "bool"
            }
          ],
          "internalType": "struct Etherfund.Campaign[]",
          "name": "",
          "type": "tuple[]"
        }
      ],
      "stateMutability": "view",
      "type": "function",
      "constant": true
    },
    {
      "inputs": [],
      "name": "getMyCampaigns",
      "outputs": [
        {
          "components": [
            {
              "internalType": "uint256",
              "name": "id",
              "type": "uint256"
            },
            {
              "internalType": "uint256",
              "name": "createdAt",
              "type": "uint256"
            },
            {
              "internalType": "address payable",
              "name": "fundRaiser",
              "type": "address"
            },
            {
              "internalType": "string",
              "name": "title",
              "type": "string"
            },
            {
              "internalType": "string",
              "name": "desc",
              "type": "string"
            },
            {
              "internalType": "string",
              "name": "imageURL",
              "type": "string"
            },
            {
              "internalType": "string",
              "name": "category",
              "type": "string"
            },
            {
              "internalType": "uint256",
              "name": "amountRequired",
              "type": "uint256"
            },
            {
              "internalType": "uint256",
              "name": "collectedAmount",
              "type": "uint256"
            },
            {
              "internalType": "uint256",
              "name": "deadline",
              "type": "uint256"
            },
            {
              "internalType": "uint256",
              "name": "noOfVoters",
              "type": "uint256"
            },
            {
              "internalType": "bool",
              "name": "isCompleted",
              "type": "bool"
            }
          ],
          "internalType": "struct Etherfund.Campaign[]",
          "name": "",
          "type": "tuple[]"
        }
      ],
      "stateMutability": "view",
      "type": "function",
      "constant": true
    },
    {
      "inputs": [],
      "name": "getMyRequests",
      "outputs": [
        {
          "components": [
            {
              "internalType": "uint256",
              "name": "campaignId",
              "type": "uint256"
            },
            {
              "internalType": "address",
              "name": "fundRaiser",
              "type": "address"
            },
            {
              "internalType": "uint256",
              "name": "amount",
              "type": "uint256"
            },
            {
              "internalType": "uint256",
              "name": "deadline",
              "type": "uint256"
            },
            {
              "internalType": "bool",
              "name": "isVoted",
              "type": "bool"
            }
          ],
          "internalType": "struct Etherfund.Request[]",
          "name": "",
          "type": "tuple[]"
        }
      ],
      "stateMutability": "view",
      "type": "function",
      "constant": true
    },
    {
      "inputs": [
        {
          "internalType": "uint256",
          "name": "_campaignId",
          "type": "uint256"
        }
      ],
      "name": "getCampaignDetails",
      "outputs": [
        {
          "components": [
            {
              "internalType": "uint256",
              "name": "id",
              "type": "uint256"
            },
            {
              "internalType": "uint256",
              "name": "createdAt",
              "type": "uint256"
            },
            {
              "internalType": "address payable",
              "name": "fundRaiser",
              "type": "address"
            },
            {
              "internalType": "string",
              "name": "title",
              "type": "string"
            },
            {
              "internalType": "string",
              "name": "desc",
              "type": "string"
            },
            {
              "internalType": "string",
              "name": "imageURL",
              "type": "string"
            },
            {
              "internalType": "string",
              "name": "category",
              "type": "string"
            },
            {
              "internalType": "uint256",
              "name": "amountRequired",
              "type": "uint256"
            },
            {
              "internalType": "uint256",
              "name": "collectedAmount",
              "type": "uint256"
            },
            {
              "internalType": "uint256",
              "name": "deadline",
              "type": "uint256"
            },
            {
              "internalType": "uint256",
              "name": "noOfVoters",
              "type": "uint256"
            },
            {
              "internalType": "bool",
              "name": "isCompleted",
              "type": "bool"
            }
          ],
          "internalType": "struct Etherfund.Campaign",
          "name": "",
          "type": "tuple"
        }
      ],
      "stateMutability": "view",
      "type": "function",
      "constant": true
    },
    {
      "inputs": [
        {
          "internalType": "uint256",
          "name": "_campaignId",
          "type": "uint256"
        }
      ],
      "name": "getCampaignMoreDetails",
      "outputs": [
        {
          "components": [
            {
              "internalType": "uint256",
              "name": "campaignId",
              "type": "uint256"
            },
            {
              "internalType": "bool",
              "name": "isRequestedToVote",
              "type": "bool"
            },
            {
              "internalType": "bool",
              "name": "isGoalAchieved",
              "type": "bool"
            }
          ],
          "internalType": "struct Etherfund.CampaignMoreDetails",
          "name": "",
          "type": "tuple"
        }
      ],
      "stateMutability": "view",
      "type": "function",
      "constant": true
    },
    {
      "inputs": [
        {
          "internalType": "uint256",
          "name": "_campaignId",
          "type": "uint256"
        }
      ],
      "name": "getWithdrawStatus",
      "outputs": [
        {
          "internalType": "bool",
          "name": "",
          "type": "bool"
        }
      ],
      "stateMutability": "view",
      "type": "function",
      "constant": true
    }
  ],
  "bytecode": "0x60806040526706f05b59d3b20000600055600060015534801561002157600080fd5b506137b1806100316000396000f3fe6080604052600436106100e85760003560e01c806391eace8b1161008a578063bf80627111610059578063bf8062711461032c578063c1cbbca714610369578063c956ad6314610385578063d993de62146103ae576100e8565b806391eace8b1461026e5780639ecebe2a14610299578063a8aee940146102da578063bcb94fb914610303576100e8565b806342b90fc8116100c657806342b90fc81461019d57806354346b66146101c85780637eb452a51461020657806382bea0ca14610243576100e8565b8063141961bc146100ed5780633276f36f146101355780633bed33ce14610174575b600080fd5b3480156100f957600080fd5b50610114600480360381019061010f91906124d0565b6103eb565b60405161012c9c9b9a999897969594939291906125f8565b60405180910390f35b34801561014157600080fd5b5061015c600480360381019061015791906124d0565b6106a8565b60405161016b939291906126ce565b60405180910390f35b34801561018057600080fd5b5061019b600480360381019061019691906124d0565b6106fc565b005b3480156101a957600080fd5b506101b261092a565b6040516101bf9190612957565b60405180910390f35b3480156101d457600080fd5b506101ef60048036038101906101ea9190612979565b610da4565b6040516101fd9291906129da565b60405180910390f35b34801561021257600080fd5b5061022d600480360381019061022891906124d0565b610e05565b60405161023a9190612a45565b60405180910390f35b34801561024f57600080fd5b50610258610e81565b6040516102659190612957565b60405180910390f35b34801561027a57600080fd5b50610283611378565b6040516102909190612b86565b60405180910390f35b3480156102a557600080fd5b506102c060048036038101906102bb9190612bd4565b6114a3565b6040516102d1959493929190612c14565b60405180910390f35b3480156102e657600080fd5b5061030160048036038101906102fc9190612d9c565b611523565b005b34801561030f57600080fd5b5061032a600480360381019061032591906124d0565b6117da565b005b34801561033857600080fd5b50610353600480360381019061034e91906124d0565b61192a565b6040516103609190612e99565b60405180910390f35b610383600480360381019061037e91906124d0565b61197d565b005b34801561039157600080fd5b506103ac60048036038101906103a791906124d0565b611cbc565b005b3480156103ba57600080fd5b506103d560048036038101906103d091906124d0565b6120b6565b6040516103e29190612fcd565b60405180910390f35b600281815481106103fb57600080fd5b90600052602060002090600c02016000915090508060000154908060010154908060020160009054906101000a900473ffffffffffffffffffffffffffffffffffffffff16908060030180546104509061301e565b80601f016020809104026020016040519081016040528092919081815260200182805461047c9061301e565b80156104c95780601f1061049e576101008083540402835291602001916104c9565b820191906000526020600020905b8154815290600101906020018083116104ac57829003601f168201915b5050505050908060040180546104de9061301e565b80601f016020809104026020016040519081016040528092919081815260200182805461050a9061301e565b80156105575780601f1061052c57610100808354040283529160200191610557565b820191906000526020600020905b81548152906001019060200180831161053a57829003601f168201915b50505050509080600501805461056c9061301e565b80601f01602080910402602001604051908101604052809291908181526020018280546105989061301e565b80156105e55780601f106105ba576101008083540402835291602001916105e5565b820191906000526020600020905b8154815290600101906020018083116105c857829003601f168201915b5050505050908060060180546105fa9061301e565b80601f01602080910402602001604051908101604052809291908181526020018280546106269061301e565b80156106735780601f1061064857610100808354040283529160200191610673565b820191906000526020600020905b81548152906001019060200180831161065657829003601f168201915b50505050509080600701549080600801549080600901549080600a01549080600b0160009054906101000a900460ff1690508c565b600381815481106106b857600080fd5b90600052602060002090600202016000915090508060000154908060010160009054906101000a900460ff16908060010160019054906101000a900460ff16905083565b600281815481106107105761070f61304f565b5b90600052602060002090600c020160020160009054906101000a900473ffffffffffffffffffffffffffffffffffffffff1673ffffffffffffffffffffffffffffffffffffffff163373ffffffffffffffffffffffffffffffffffffffff16146107af576040517f08c379a00000000000000000000000000000000000000000000000000000000081526004016107a6906130ca565b60405180910390fd5b600260046000838152602001908152602001600020805490506107d29190613148565b600282815481106107e6576107e561304f565b5b90600052602060002090600c0201600a015411610838576040517f08c379a000000000000000000000000000000000000000000000000000000000815260040161082f906131c5565b60405180910390fd5b6002818154811061084c5761084b61304f565b5b90600052602060002090600c020160020160009054906101000a900473ffffffffffffffffffffffffffffffffffffffff1673ffffffffffffffffffffffffffffffffffffffff166108fc600283815481106108ab576108aa61304f565b5b90600052602060002090600c0201600701549081150290604051600060405180830381858888f193505050501580156108e8573d6000803e3d6000fd5b506001600282815481106108ff576108fe61304f565b5b90600052602060002090600c0201600b0160006101000a81548160ff02191690831515021790555050565b60606000805b60028054905081101561099657600281815481106109515761095061304f565b5b90600052602060002090600c0201600b0160009054906101000a900460ff1661098357818061097f906131e5565b9250505b808061098e906131e5565b915050610930565b5060008167ffffffffffffffff8111156109b3576109b2612c71565b5b6040519080825280602002602001820160405280156109ec57816020015b6109d96123e8565b8152602001906001900390816109d15790505b5090506000805b600280549050811015610d9a5760028181548110610a1457610a1361304f565b5b90600052602060002090600c0201600b0160009054906101000a900460ff16610d875760028181548110610a4b57610a4a61304f565b5b90600052602060002090600c02016040518061018001604052908160008201548152602001600182015481526020016002820160009054906101000a900473ffffffffffffffffffffffffffffffffffffffff1673ffffffffffffffffffffffffffffffffffffffff1673ffffffffffffffffffffffffffffffffffffffff168152602001600382018054610adf9061301e565b80601f0160208091040260200160405190810160405280929190818152602001828054610b0b9061301e565b8015610b585780601f10610b2d57610100808354040283529160200191610b58565b820191906000526020600020905b815481529060010190602001808311610b3b57829003601f168201915b50505050508152602001600482018054610b719061301e565b80601f0160208091040260200160405190810160405280929190818152602001828054610b9d9061301e565b8015610bea5780601f10610bbf57610100808354040283529160200191610bea565b820191906000526020600020905b815481529060010190602001808311610bcd57829003601f168201915b50505050508152602001600582018054610c039061301e565b80601f0160208091040260200160405190810160405280929190818152602001828054610c2f9061301e565b8015610c7c5780601f10610c5157610100808354040283529160200191610c7c565b820191906000526020600020905b815481529060010190602001808311610c5f57829003601f168201915b50505050508152602001600682018054610c959061301e565b80601f0160208091040260200160405190810160405280929190818152602001828054610cc19061301e565b8015610d0e5780601f10610ce357610100808354040283529160200191610d0e565b820191906000526020600020905b815481529060010190602001808311610cf157829003601f168201915b50505050508152602001600782015481526020016008820154815260200160098201548152602001600a8201548152602001600b820160009054906101000a900460ff161515151581525050838381518110610d6d57610d6c61304f565b5b60200260200101819052508180610d83906131e5565b9250505b8080610d92906131e5565b9150506109f3565b5081935050505090565b60046020528160005260406000208181548110610dc057600080fd5b9060005260206000209060020201600091509150508060000160009054906101000a900473ffffffffffffffffffffffffffffffffffffffff16908060010154905082565b610e0d612461565b60038281548110610e2157610e2061304f565b5b9060005260206000209060020201604051806060016040529081600082015481526020016001820160009054906101000a900460ff161515151581526020016001820160019054906101000a900460ff1615151515815250509050919050565b60606000805b600280549050811015610f2e573373ffffffffffffffffffffffffffffffffffffffff1660028281548110610ebf57610ebe61304f565b5b90600052602060002090600c020160020160009054906101000a900473ffffffffffffffffffffffffffffffffffffffff1673ffffffffffffffffffffffffffffffffffffffff1603610f1b578180610f17906131e5565b9250505b8080610f26906131e5565b915050610e87565b5060008167ffffffffffffffff811115610f4b57610f4a612c71565b5b604051908082528060200260200182016040528015610f8457816020015b610f716123e8565b815260200190600190039081610f695790505b5090506000805b8381101561136e573373ffffffffffffffffffffffffffffffffffffffff1660028281548110610fbe57610fbd61304f565b5b90600052602060002090600c020160020160009054906101000a900473ffffffffffffffffffffffffffffffffffffffff1673ffffffffffffffffffffffffffffffffffffffff160361135b576002818154811061101f5761101e61304f565b5b90600052602060002090600c02016040518061018001604052908160008201548152602001600182015481526020016002820160009054906101000a900473ffffffffffffffffffffffffffffffffffffffff1673ffffffffffffffffffffffffffffffffffffffff1673ffffffffffffffffffffffffffffffffffffffff1681526020016003820180546110b39061301e565b80601f01602080910402602001604051908101604052809291908181526020018280546110df9061301e565b801561112c5780601f106111015761010080835404028352916020019161112c565b820191906000526020600020905b81548152906001019060200180831161110f57829003601f168201915b505050505081526020016004820180546111459061301e565b80601f01602080910402602001604051908101604052809291908181526020018280546111719061301e565b80156111be5780601f10611193576101008083540402835291602001916111be565b820191906000526020600020905b8154815290600101906020018083116111a157829003601f168201915b505050505081526020016005820180546111d79061301e565b80601f01602080910402602001604051908101604052809291908181526020018280546112039061301e565b80156112505780601f1061122557610100808354040283529160200191611250565b820191906000526020600020905b81548152906001019060200180831161123357829003601f168201915b505050505081526020016006820180546112699061301e565b80601f01602080910402602001604051908101604052809291908181526020018280546112959061301e565b80156112e25780601f106112b7576101008083540402835291602001916112e2565b820191906000526020600020905b8154815290600101906020018083116112c557829003601f168201915b50505050508152602001600782015481526020016008820154815260200160098201548152602001600a8201548152602001600b820160009054906101000a900460ff1615151515815250508383815181106113415761134061304f565b5b60200260200101819052508180611357906131e5565b9250505b8080611366906131e5565b915050610f8b565b5081935050505090565b6060600560003373ffffffffffffffffffffffffffffffffffffffff1673ffffffffffffffffffffffffffffffffffffffff168152602001908152602001600020805480602002602001604051908101604052809291908181526020016000905b8282101561149a57838290600052602060002090600502016040518060a0016040529081600082015481526020016001820160009054906101000a900473ffffffffffffffffffffffffffffffffffffffff1673ffffffffffffffffffffffffffffffffffffffff1673ffffffffffffffffffffffffffffffffffffffff16815260200160028201548152602001600382015481526020016004820160009054906101000a900460ff161515151581525050815260200190600101906113d9565b50505050905090565b600560205281600052604060002081815481106114bf57600080fd5b9060005260206000209060050201600091509150508060000154908060010160009054906101000a900473ffffffffffffffffffffffffffffffffffffffff16908060020154908060030154908060040160009054906101000a900460ff16905085565b60006202a30090508042611537919061322d565b8311611578576040517f08c379a000000000000000000000000000000000000000000000000000000000815260040161156f906132d3565b60405180910390fd5b600060405180610180016040528060015481526020014281526020013373ffffffffffffffffffffffffffffffffffffffff168152602001898152602001888152602001868152602001878152602001848152602001600081526020018581526020016000815260200160001515815250905060028190806001815401808255809150506001900390600052602060002090600c0201600090919091909150600082015181600001556020820151816001015560408201518160020160006101000a81548173ffffffffffffffffffffffffffffffffffffffff021916908373ffffffffffffffffffffffffffffffffffffffff1602179055506060820151816003019081611687919061349f565b50608082015181600401908161169d919061349f565b5060a08201518160050190816116b3919061349f565b5060c08201518160060190816116c9919061349f565b5060e082015181600701556101008201518160080155610120820151816009015561014082015181600a015561016082015181600b0160006101000a81548160ff021916908315150217905550505060006040518060600160405280600154815260200160001515815260200160001515815250905060038190806001815401808255809150506001900390600052602060002090600202016000909190919091506000820151816000015560208201518160010160006101000a81548160ff02191690831515021790555060408201518160010160016101000a81548160ff0219169083151502179055505050600160008154809291906117ca906131e5565b9190505550505050505050505050565b6000600560003373ffffffffffffffffffffffffffffffffffffffff1673ffffffffffffffffffffffffffffffffffffffff168152602001908152602001600020905060005b818054905081101561192557828282815481106118405761183f61304f565b5b9060005260206000209060050201600001541480156118945750600015158282815481106118715761187061304f565b5b906000526020600020906005020160040160009054906101000a900460ff161515145b156119125760018282815481106118ae576118ad61304f565b5b906000526020600020906005020160040160006101000a81548160ff021916908315150217905550600283815481106118ea576118e961304f565b5b90600052602060002090600c0201600a01600081548092919061190c906131e5565b91905055505b808061191d906131e5565b915050611820565b505050565b60006002600460008481526020019081526020016000208054905061194f9190613148565b600283815481106119635761196261304f565b5b90600052602060002090600c0201600a0154119050919050565b6000543410156119c2576040517f08c379a00000000000000000000000000000000000000000000000000000000081526004016119b9906135e3565b60405180910390fd5b60001515600382815481106119da576119d961304f565b5b906000526020600020906002020160010160019054906101000a900460ff16151514611a3b576040517f08c379a0000000000000000000000000000000000000000000000000000000008152600401611a329061364f565b60405180910390fd5b3460028281548110611a5057611a4f61304f565b5b90600052602060002090600c02016008016000828254611a70919061366f565b92505081905550600060019050600060046000848152602001908152602001600020905060005b8180549050811015611b71573373ffffffffffffffffffffffffffffffffffffffff16828281548110611acd57611acc61304f565b5b906000526020600020906002020160000160009054906101000a900473ffffffffffffffffffffffffffffffffffffffff1673ffffffffffffffffffffffffffffffffffffffff1603611b5e5734828281548110611b2e57611b2d61304f565b5b90600052602060002090600202016001016000828254611b4e919061366f565b9250508190555060009250611b71565b8080611b69906131e5565b915050611a97565b508115611c2757600060405180604001604052803373ffffffffffffffffffffffffffffffffffffffff1681526020013481525090508181908060018154018082558091505060019003906000526020600020906002020160009091909190915060008201518160000160006101000a81548173ffffffffffffffffffffffffffffffffffffffff021916908373ffffffffffffffffffffffffffffffffffffffff160217905550602082015181600101555050505b60028381548110611c3b57611c3a61304f565b5b90600052602060002090600c02016007015460028481548110611c6157611c6061304f565b5b90600052602060002090600c02016008015410611cb757600160038481548110611c8e57611c8d61304f565b5b906000526020600020906002020160010160016101000a81548160ff0219169083151502179055505b505050565b3373ffffffffffffffffffffffffffffffffffffffff1660028281548110611ce757611ce661304f565b5b90600052602060002090600c020160020160009054906101000a900473ffffffffffffffffffffffffffffffffffffffff1673ffffffffffffffffffffffffffffffffffffffff1614611d6f576040517f08c379a0000000000000000000000000000000000000000000000000000000008152600401611d66906130ca565b60405180910390fd5b60028181548110611d8357611d8261304f565b5b90600052602060002090600c02016007015460028281548110611da957611da861304f565b5b90600052602060002090600c0201600801541015611dfc576040517f08c379a0000000000000000000000000000000000000000000000000000000008152600401611df3906136ef565b60405180910390fd5b600160038281548110611e1257611e1161304f565b5b906000526020600020906002020160010160006101000a81548160ff0219169083151502179055611e78576040517f08c379a0000000000000000000000000000000000000000000000000000000008152600401611e6f9061375b565b60405180910390fd5b600060046000838152602001908152602001600020905060005b81805490508110156120735760006040518060a001604052808581526020013373ffffffffffffffffffffffffffffffffffffffff168152602001848481548110611ee057611edf61304f565b5b906000526020600020906002020160010154815260200160028681548110611f0b57611f0a61304f565b5b90600052602060002090600c020160090154815260200160001515815250905060056000848481548110611f4257611f4161304f565b5b906000526020600020906002020160000160009054906101000a900473ffffffffffffffffffffffffffffffffffffffff1673ffffffffffffffffffffffffffffffffffffffff1673ffffffffffffffffffffffffffffffffffffffff1681526020019081526020016000208190806001815401808255809150506001900390600052602060002090600502016000909190919091506000820151816000015560208201518160010160006101000a81548173ffffffffffffffffffffffffffffffffffffffff021916908373ffffffffffffffffffffffffffffffffffffffff160217905550604082015181600201556060820151816003015560808201518160040160006101000a81548160ff021916908315150217905550505050808061206b906131e5565b915050611e92565b5060016003838154811061208a5761208961304f565b5b906000526020600020906002020160010160006101000a81548160ff0219169083151502179055505050565b6120be6123e8565b600282815481106120d2576120d161304f565b5b90600052602060002090600c02016040518061018001604052908160008201548152602001600182015481526020016002820160009054906101000a900473ffffffffffffffffffffffffffffffffffffffff1673ffffffffffffffffffffffffffffffffffffffff1673ffffffffffffffffffffffffffffffffffffffff1681526020016003820180546121669061301e565b80601f01602080910402602001604051908101604052809291908181526020018280546121929061301e565b80156121df5780601f106121b4576101008083540402835291602001916121df565b820191906000526020600020905b8154815290600101906020018083116121c257829003601f168201915b505050505081526020016004820180546121f89061301e565b80601f01602080910402602001604051908101604052809291908181526020018280546122249061301e565b80156122715780601f1061224657610100808354040283529160200191612271565b820191906000526020600020905b81548152906001019060200180831161225457829003601f168201915b5050505050815260200160058201805461228a9061301e565b80601f01602080910402602001604051908101604052809291908181526020018280546122b69061301e565b80156123035780601f106122d857610100808354040283529160200191612303565b820191906000526020600020905b8154815290600101906020018083116122e657829003601f168201915b5050505050815260200160068201805461231c9061301e565b80601f01602080910402602001604051908101604052809291908181526020018280546123489061301e565b80156123955780601f1061236a57610100808354040283529160200191612395565b820191906000526020600020905b81548152906001019060200180831161237857829003601f168201915b50505050508152602001600782015481526020016008820154815260200160098201548152602001600a8201548152602001600b820160009054906101000a900460ff1615151515815250509050919050565b6040518061018001604052806000815260200160008152602001600073ffffffffffffffffffffffffffffffffffffffff16815260200160608152602001606081526020016060815260200160608152602001600081526020016000815260200160008152602001600081526020016000151581525090565b6040518060600160405280600081526020016000151581526020016000151581525090565b6000604051905090565b600080fd5b600080fd5b6000819050919050565b6124ad8161249a565b81146124b857600080fd5b50565b6000813590506124ca816124a4565b92915050565b6000602082840312156124e6576124e5612490565b5b60006124f4848285016124bb565b91505092915050565b6125068161249a565b82525050565b600073ffffffffffffffffffffffffffffffffffffffff82169050919050565b60006125378261250c565b9050919050565b6125478161252c565b82525050565b600081519050919050565b600082825260208201905092915050565b60005b8381101561258757808201518184015260208101905061256c565b60008484015250505050565b6000601f19601f8301169050919050565b60006125af8261254d565b6125b98185612558565b93506125c9818560208601612569565b6125d281612593565b840191505092915050565b60008115159050919050565b6125f2816125dd565b82525050565b60006101808201905061260e600083018f6124fd565b61261b602083018e6124fd565b612628604083018d61253e565b818103606083015261263a818c6125a4565b9050818103608083015261264e818b6125a4565b905081810360a0830152612662818a6125a4565b905081810360c083015261267681896125a4565b905061268560e08301886124fd565b6126936101008301876124fd565b6126a16101208301866124fd565b6126af6101408301856124fd565b6126bd6101608301846125e9565b9d9c50505050505050505050505050565b60006060820190506126e360008301866124fd565b6126f060208301856125e9565b6126fd60408301846125e9565b949350505050565b600081519050919050565b600082825260208201905092915050565b6000819050602082019050919050565b61273a8161249a565b82525050565b6127498161252c565b82525050565b600082825260208201905092915050565b600061276b8261254d565b612775818561274f565b9350612785818560208601612569565b61278e81612593565b840191505092915050565b6127a2816125dd565b82525050565b6000610180830160008301516127c16000860182612731565b5060208301516127d46020860182612731565b5060408301516127e76040860182612740565b50606083015184820360608601526127ff8282612760565b915050608083015184820360808601526128198282612760565b91505060a083015184820360a08601526128338282612760565b91505060c083015184820360c086015261284d8282612760565b91505060e083015161286260e0860182612731565b50610100830151612877610100860182612731565b5061012083015161288c610120860182612731565b506101408301516128a1610140860182612731565b506101608301516128b6610160860182612799565b508091505092915050565b60006128cd83836127a8565b905092915050565b6000602082019050919050565b60006128ed82612705565b6128f78185612710565b93508360208202850161290985612721565b8060005b85811015612945578484038952815161292685826128c1565b9450612931836128d5565b925060208a0199505060018101905061290d565b50829750879550505050505092915050565b6000602082019050818103600083015261297181846128e2565b905092915050565b600080604083850312156129905761298f612490565b5b600061299e858286016124bb565b92505060206129af858286016124bb565b9150509250929050565b60006129c48261250c565b9050919050565b6129d4816129b9565b82525050565b60006040820190506129ef60008301856129cb565b6129fc60208301846124fd565b9392505050565b606082016000820151612a196000850182612731565b506020820151612a2c6020850182612799565b506040820151612a3f6040850182612799565b50505050565b6000606082019050612a5a6000830184612a03565b92915050565b600081519050919050565b600082825260208201905092915050565b6000819050602082019050919050565b612a95816129b9565b82525050565b60a082016000820151612ab16000850182612731565b506020820151612ac46020850182612a8c565b506040820151612ad76040850182612731565b506060820151612aea6060850182612731565b506080820151612afd6080850182612799565b50505050565b6000612b0f8383612a9b565b60a08301905092915050565b6000602082019050919050565b6000612b3382612a60565b612b3d8185612a6b565b9350612b4883612a7c565b8060005b83811015612b79578151612b608882612b03565b9750612b6b83612b1b565b925050600181019050612b4c565b5085935050505092915050565b60006020820190508181036000830152612ba08184612b28565b905092915050565b612bb1816129b9565b8114612bbc57600080fd5b50565b600081359050612bce81612ba8565b92915050565b60008060408385031215612beb57612bea612490565b5b6000612bf985828601612bbf565b9250506020612c0a858286016124bb565b9150509250929050565b600060a082019050612c2960008301886124fd565b612c3660208301876129cb565b612c4360408301866124fd565b612c5060608301856124fd565b612c5d60808301846125e9565b9695505050505050565b600080fd5b600080fd5b7f4e487b7100000000000000000000000000000000000000000000000000000000600052604160045260246000fd5b612ca982612593565b810181811067ffffffffffffffff82111715612cc857612cc7612c71565b5b80604052505050565b6000612cdb612486565b9050612ce78282612ca0565b919050565b600067ffffffffffffffff821115612d0757612d06612c71565b5b612d1082612593565b9050602081019050919050565b82818337600083830152505050565b6000612d3f612d3a84612cec565b612cd1565b905082815260208101848484011115612d5b57612d5a612c6c565b5b612d66848285612d1d565b509392505050565b600082601f830112612d8357612d82612c67565b5b8135612d93848260208601612d2c565b91505092915050565b60008060008060008060c08789031215612db957612db8612490565b5b600087013567ffffffffffffffff811115612dd757612dd6612495565b5b612de389828a01612d6e565b965050602087013567ffffffffffffffff811115612e0457612e03612495565b5b612e1089828a01612d6e565b955050604087013567ffffffffffffffff811115612e3157612e30612495565b5b612e3d89828a01612d6e565b945050606087013567ffffffffffffffff811115612e5e57612e5d612495565b5b612e6a89828a01612d6e565b9350506080612e7b89828a016124bb565b92505060a0612e8c89828a016124bb565b9150509295509295509295565b6000602082019050612eae60008301846125e9565b92915050565b600061018083016000830151612ecd6000860182612731565b506020830151612ee06020860182612731565b506040830151612ef36040860182612740565b5060608301518482036060860152612f0b8282612760565b91505060808301518482036080860152612f258282612760565b91505060a083015184820360a0860152612f3f8282612760565b91505060c083015184820360c0860152612f598282612760565b91505060e0830151612f6e60e0860182612731565b50610100830151612f83610100860182612731565b50610120830151612f98610120860182612731565b50610140830151612fad610140860182612731565b50610160830151612fc2610160860182612799565b508091505092915050565b60006020820190508181036000830152612fe78184612eb4565b905092915050565b7f4e487b7100000000000000000000000000000000000000000000000000000000600052602260045260246000fd5b6000600282049050600182168061303657607f821691505b60208210810361304957613048612fef565b5b50919050565b7f4e487b7100000000000000000000000000000000000000000000000000000000600052603260045260246000fd5b7f596f7520617265206e6f74207468652066756e64726169736572000000000000600082015250565b60006130b4601a83612558565b91506130bf8261307e565b602082019050919050565b600060208201905081810360008301526130e3816130a7565b9050919050565b7f4e487b7100000000000000000000000000000000000000000000000000000000600052601260045260246000fd5b7f4e487b7100000000000000000000000000000000000000000000000000000000600052601160045260246000fd5b60006131538261249a565b915061315e8361249a565b92508261316e5761316d6130ea565b5b828204905092915050565b7f4e6f7420656e6f75676820766f746520746f2077697468647261770000000000600082015250565b60006131af601b83612558565b91506131ba82613179565b602082019050919050565b600060208201905081810360008301526131de816131a2565b9050919050565b60006131f08261249a565b91507fffffffffffffffffffffffffffffffffffffffffffffffffffffffffffffffff820361322257613221613119565b5b600182019050919050565b60006132388261249a565b91506132438361249a565b925082820390508181111561325b5761325a613119565b5b92915050565b7f50726f6a656374206d75737420626520706f73746564206265666f726520747760008201527f6f20646179730000000000000000000000000000000000000000000000000000602082015250565b60006132bd602683612558565b91506132c882613261565b604082019050919050565b600060208201905081810360008301526132ec816132b0565b9050919050565b60008190508160005260206000209050919050565b60006020601f8301049050919050565b600082821b905092915050565b6000600883026133557fffffffffffffffffffffffffffffffffffffffffffffffffffffffffffffffff82613318565b61335f8683613318565b95508019841693508086168417925050509392505050565b6000819050919050565b600061339c6133976133928461249a565b613377565b61249a565b9050919050565b6000819050919050565b6133b683613381565b6133ca6133c2826133a3565b848454613325565b825550505050565b600090565b6133df6133d2565b6133ea8184846133ad565b505050565b5b8181101561340e576134036000826133d7565b6001810190506133f0565b5050565b601f82111561345357613424816132f3565b61342d84613308565b8101602085101561343c578190505b61345061344885613308565b8301826133ef565b50505b505050565b600082821c905092915050565b600061347660001984600802613458565b1980831691505092915050565b600061348f8383613465565b9150826002028217905092915050565b6134a88261254d565b67ffffffffffffffff8111156134c1576134c0612c71565b5b6134cb825461301e565b6134d6828285613412565b600060209050601f83116001811461350957600084156134f7578287015190505b6135018582613483565b865550613569565b601f198416613517866132f3565b60005b8281101561353f5784890151825560018201915060208501945060208101905061351a565b8683101561355c5784890151613558601f891682613465565b8355505b6001600288020188555050505b505050505050565b7f4d696e696d756e20636f6e747269627574696f6e20697320302e35206574686560008201527f7200000000000000000000000000000000000000000000000000000000000000602082015250565b60006135cd602183612558565b91506135d882613571565b604082019050919050565b600060208201905081810360008301526135fc816135c0565b9050919050565b7f54686520676f616c20697320616368696576656420616c726561647900000000600082015250565b6000613639601c83612558565b915061364482613603565b602082019050919050565b600060208201905081810360008301526136688161362c565b9050919050565b600061367a8261249a565b91506136858361249a565b925082820190508082111561369d5761369c613119565b5b92915050565b7f54686520676f616c206973206e6f742061636869657665640000000000000000600082015250565b60006136d9601883612558565b91506136e4826136a3565b602082019050919050565b60006020820190508181036000830152613708816136cc565b9050919050565b7f416c726561647920726571756573746564000000000000000000000000000000600082015250565b6000613745601183612558565b91506137508261370f565b602082019050919050565b6000602082019050818103600083015261377481613738565b905091905056fea26469706673582212207c628b5b2f6a7b917ff2d6af29397329c713aff84fd156a8e551decdb21c566d64736f6c63430008120033",
  "immutableReferences": {},
  "source": "// SPDX-License-Identifier: MIT\r\n\r\npragma solidity >=0.7.0 <0.9.0;\r\n\r\ncontract Etherfund {\r\n    uint256 minimuContribution = 0.5 ether; // minimum value for contribution \r\n    uint256 totalCampaigns = 0; // for creating id for campaigns (increments after inserting each campaign to array)\r\n\r\n    // Campaign structure to save data of campaign\r\n    struct Campaign {\r\n        uint256 id;\r\n        uint256 createdAt; // in timestamp\r\n        address payable fundRaiser; // address of fundraiser\r\n        string title;\r\n        string desc;\r\n        string imageURL;\r\n        string category;\r\n        uint256 amountRequired;\r\n        uint256 collectedAmount;\r\n        uint256 deadline;\r\n        uint256 noOfVoters; // total voters\r\n        bool isCompleted;\r\n    }\r\n    Campaign[] public campaigns; // to save each campaign\r\n\r\n    struct CampaignMoreDetails {\r\n        uint256 campaignId;\r\n        bool isRequestedToVote;\r\n        bool isGoalAchieved;\r\n    }\r\n    CampaignMoreDetails[] public campaignMoreDetails;\r\n\r\n    struct Contributor {\r\n        address contributor;\r\n        uint256 amountContributed;\r\n    }\r\n    mapping(uint256 => Contributor[]) public contributors; // campaign id maps contributors\r\n\r\n    struct Request {\r\n        uint256 campaignId;\r\n        address fundRaiser;\r\n        uint256 amount;\r\n        uint256 deadline;\r\n        bool isVoted;\r\n    }\r\n    mapping(address => Request[]) public requests; // msg.sender maps requests\r\n\r\n    // create a new campaign\r\n    function createCampaign(\r\n        string memory _title,\r\n        string memory _desc,\r\n        string memory _category,\r\n        string memory _imageURL,\r\n        uint256 _deadline,\r\n        uint256 _amountRequired\r\n    ) public {\r\n        uint256 twoDaysInSeconds = 2 * 24 * 60 * 60; // 2 days in seconds\r\n        require(\r\n            _deadline > (block.timestamp - twoDaysInSeconds),\r\n            \"Project must be posted before two days\"\r\n        );\r\n\r\n        Campaign memory newCampaign = Campaign(\r\n            totalCampaigns,\r\n            block.timestamp, // timestamp when the new block is created\r\n            payable(msg.sender), // address of fundraiser is converting to payable for withdrawl in future\r\n            _title,\r\n            _desc,\r\n            _imageURL,\r\n            _category,\r\n            _amountRequired,\r\n            0, // collected amount initially 0\r\n            _deadline,\r\n            0, // no of voters initially 0,\r\n            false // campaign completed is initially false\r\n        );\r\n\r\n        campaigns.push(newCampaign); // push newly created campaign to array\r\n\r\n        CampaignMoreDetails memory newCampaignMoreDetails = CampaignMoreDetails(\r\n            totalCampaigns,\r\n            false, // is the campaign requested to vote\r\n            false // is the campaign achieved the goal\r\n        );\r\n\r\n        campaignMoreDetails.push(newCampaignMoreDetails);\r\n\r\n        totalCampaigns++; // increment no of campaigns\r\n    }\r\n\r\n    // contribute ether\r\n    function contribute(uint256 campaignId) public payable {\r\n        require(\r\n            msg.value >= minimuContribution,\r\n            \"Minimun contribution is 0.5 ether\"\r\n        );\r\n        require(\r\n            campaignMoreDetails[campaignId].isGoalAchieved == false,\r\n            \"The goal is achieved already\"\r\n        );\r\n\r\n        // incrementing collected amount of campaingn\r\n        campaigns[campaignId].collectedAmount += msg.value;\r\n        bool newContributer = true;\r\n        Contributor[] storage contributorsList = contributors[campaignId];\r\n\r\n        for (uint256 i = 0; i < contributorsList.length; i++) {\r\n            if (contributorsList[i].contributor == msg.sender) {\r\n                // increment contributed amount of a person for 2nd contribution\r\n                contributorsList[i].amountContributed += msg.value;\r\n                newContributer = false;\r\n                break;\r\n            }\r\n        }\r\n        if (newContributer) {\r\n            // creating new contributor\r\n            Contributor memory contributor = Contributor({\r\n                contributor: msg.sender,\r\n                amountContributed: msg.value\r\n            });\r\n            contributorsList.push(contributor);\r\n        }\r\n\r\n        if (\r\n            campaigns[campaignId].collectedAmount >=\r\n            campaigns[campaignId].amountRequired\r\n        ) {\r\n            campaignMoreDetails[campaignId].isGoalAchieved = true;\r\n        }\r\n    }\r\n\r\n    // Request to vote\r\n    function requestVote(uint256 _campaignId) public {\r\n        require(\r\n            campaigns[_campaignId].fundRaiser == msg.sender,\r\n            \"You are not the fundraiser\"\r\n        );\r\n        require(\r\n            campaigns[_campaignId].collectedAmount >=\r\n                campaigns[_campaignId].amountRequired,\r\n            \"The goal is not achieved\"\r\n        );\r\n        require(\r\n            campaignMoreDetails[_campaignId].isRequestedToVote = true,\r\n            \"Already requested\"\r\n        );\r\n\r\n        Contributor[] storage contributorsList = contributors[_campaignId]; // get all contributors\r\n        for (uint256 i = 0; i < contributorsList.length; i++) {\r\n            Request memory newRequest = Request(\r\n                _campaignId,\r\n                msg.sender,\r\n                contributorsList[i].amountContributed,\r\n                campaigns[_campaignId].deadline,\r\n                false // initially voted is false\r\n            );\r\n            requests[contributorsList[i].contributor].push(newRequest);\r\n        }\r\n\r\n        campaignMoreDetails[_campaignId].isRequestedToVote = true;\r\n    }\r\n\r\n    // vote for a campaign\r\n    function voteForCampaign(uint256 campaignId) public {\r\n        Request[] storage requestList = requests[msg.sender];\r\n\r\n        for (uint256 i = 0; i < requestList.length; i++) {\r\n            if (\r\n                requestList[i].campaignId == campaignId &&\r\n                requestList[i].isVoted == false\r\n            ) {\r\n                requestList[i].isVoted = true;\r\n                campaigns[campaignId].noOfVoters++;\r\n            }\r\n        }\r\n    }\r\n\r\n    // withdraw after voted half of the contributors\r\n    function withdrawEther(uint256 campaignId) public {\r\n        require(\r\n            msg.sender == campaigns[campaignId].fundRaiser,\r\n            \"You are not the fundraiser\"\r\n        );\r\n        require(\r\n            campaigns[campaignId].noOfVoters >\r\n                (contributors[campaignId].length / 2),\r\n            \"Not enough vote to withdraw\"\r\n        );\r\n\r\n        campaigns[campaignId].fundRaiser.transfer(\r\n            campaigns[campaignId].amountRequired\r\n        );\r\n\r\n        campaigns[campaignId].isCompleted = true;\r\n    }\r\n\r\n    // get all incompleted campaigns\r\n    function getIncompleteCampaigns() public view returns (Campaign[] memory) {\r\n        uint256 count = 0; // total count of incomplete campaigns\r\n        for (uint256 i = 0; i < campaigns.length; i++) {\r\n            if (!campaigns[i].isCompleted) {\r\n                count++;\r\n            }\r\n        }\r\n\r\n        Campaign[] memory result = new Campaign[](count); // create an instance of Campaign with size count\r\n        uint256 j = 0;\r\n        for (uint256 i = 0; i < campaigns.length; i++) {\r\n            if (!campaigns[i].isCompleted) {\r\n                result[j] = campaigns[i];\r\n                j++;\r\n            }\r\n        }\r\n        return result;\r\n    }\r\n\r\n    // get all campaigns created by a user\r\n    function getMyCampaigns() public view returns (Campaign[] memory) {\r\n        // get count of campaigns created by user(msg.sender)\r\n        uint256 count = 0;\r\n        for (uint256 i = 0; i < campaigns.length; i++)\r\n            if (campaigns[i].fundRaiser == msg.sender) count++;\r\n\r\n        Campaign[] memory myCampaigns = new Campaign[](count);\r\n        uint256 j = 0;\r\n        for (uint256 i = 0; i < count; i++) {\r\n            if (campaigns[i].fundRaiser == msg.sender) {\r\n                myCampaigns[j] = campaigns[i];\r\n                j++;\r\n            }\r\n        }\r\n        return myCampaigns;\r\n    }\r\n\r\n    // get all requests\r\n    function getMyRequests() public view returns (Request[] memory) {\r\n        return requests[msg.sender];\r\n    }\r\n\r\n    // get details about a campaign with campaignId\r\n    function getCampaignDetails(uint256 _campaignId)\r\n        public\r\n        view\r\n        returns (Campaign memory)\r\n    {\r\n        return campaigns[_campaignId];\r\n    }\r\n\r\n    function getCampaignMoreDetails(uint _campaignId) public view returns(CampaignMoreDetails memory) {\r\n        return campaignMoreDetails[_campaignId];\r\n    }\r\n\r\n    function getWithdrawStatus(uint _campaignId) public view returns(bool) {\r\n        return campaigns[_campaignId].noOfVoters > (contributors[_campaignId].length / 2);\r\n    }\r\n}",
  "sourcePath": "C:\\Users\\sandh\\Desktop\\crowdfund\\contracts\\Etherfund.sol",
  "compiler": {
    "name": "solc",
    "version": "0.8.18+commit.87f61d96.Emscripten.clang"
  },
  "schemaVersion": "3.4.12",
  "updatedAt": "2023-06-15T09:20:16.900Z",
  "networkType": "ethereum",
  "devdoc": {
    "kind": "dev",
    "methods": {},
    "version": 1
  },
  "userdoc": {
    "kind": "user",
    "methods": {},
    "version": 1
  }
}